{
  "_format": "hh-sol-artifact-1",
  "contractName": "DutchAuction",
  "sourceName": "contracts/Dutch.sol",
  "abi": [
    {
      "inputs": [
        {
          "internalType": "uint256",
          "name": "_startingPrice",
          "type": "uint256"
        },
        {
          "internalType": "uint256",
          "name": "_priceDeductionRate",
          "type": "uint256"
        },
        {
          "internalType": "address",
          "name": "_nft",
          "type": "address"
        },
        {
          "internalType": "uint256",
          "name": "_nftId",
          "type": "uint256"
        }
      ],
      "stateMutability": "nonpayable",
      "type": "constructor"
    },
    {
      "anonymous": false,
      "inputs": [
        {
          "indexed": false,
          "internalType": "address",
          "name": "winner",
          "type": "address"
        },
        {
          "indexed": false,
          "internalType": "uint256",
          "name": "amount",
          "type": "uint256"
        }
      ],
      "name": "Buy",
      "type": "event"
    },
    {
      "inputs": [],
      "name": "buy",
      "outputs": [],
      "stateMutability": "payable",
      "type": "function"
    },
    {
      "inputs": [],
      "name": "expiresAt",
      "outputs": [
        {
          "internalType": "uint256",
          "name": "",
          "type": "uint256"
        }
      ],
      "stateMutability": "view",
      "type": "function"
    },
    {
      "inputs": [],
      "name": "nft",
      "outputs": [
        {
          "internalType": "contract IERC721",
          "name": "",
          "type": "address"
        }
      ],
      "stateMutability": "view",
      "type": "function"
    },
    {
      "inputs": [],
      "name": "nftId",
      "outputs": [
        {
          "internalType": "uint256",
          "name": "",
          "type": "uint256"
        }
      ],
      "stateMutability": "view",
      "type": "function"
    },
    {
      "inputs": [],
      "name": "priceDeductionRate",
      "outputs": [
        {
          "internalType": "uint256",
          "name": "",
          "type": "uint256"
        }
      ],
      "stateMutability": "view",
      "type": "function"
    },
    {
      "inputs": [],
      "name": "seller",
      "outputs": [
        {
          "internalType": "address payable",
          "name": "",
          "type": "address"
        }
      ],
      "stateMutability": "view",
      "type": "function"
    },
    {
      "inputs": [],
      "name": "startAt",
      "outputs": [
        {
          "internalType": "uint256",
          "name": "",
          "type": "uint256"
        }
      ],
      "stateMutability": "view",
      "type": "function"
    },
    {
      "inputs": [],
      "name": "startingPrice",
      "outputs": [
        {
          "internalType": "uint256",
          "name": "",
          "type": "uint256"
        }
      ],
      "stateMutability": "view",
      "type": "function"
    },
    {
      "inputs": [],
      "name": "winner",
      "outputs": [
        {
          "internalType": "address",
          "name": "",
          "type": "address"
        }
      ],
      "stateMutability": "view",
      "type": "function"
    }
  ],
  "bytecode": "0x60c06040523480156200001157600080fd5b5060405162000c3838038062000c3883398181016040528101906200003791906200011a565b336000806101000a81548173ffffffffffffffffffffffffffffffffffffffff021916908373ffffffffffffffffffffffffffffffffffffffff160217905550836001819055504260028190555062093a804262000096919062000186565b600381905550826004819055508173ffffffffffffffffffffffffffffffffffffffff1660808173ffffffffffffffffffffffffffffffffffffffff1660601b815250508060a081815250505050505062000284565b600081519050620000fd8162000250565b92915050565b60008151905062000114816200026a565b92915050565b600080600080608085870312156200013157600080fd5b6000620001418782880162000103565b9450506020620001548782880162000103565b93505060406200016787828801620000ec565b92505060606200017a8782880162000103565b91505092959194509250565b6000620001938262000217565b9150620001a08362000217565b9250827fffffffffffffffffffffffffffffffffffffffffffffffffffffffffffffffff03821115620001d857620001d762000221565b5b828201905092915050565b6000620001f082620001f7565b9050919050565b600073ffffffffffffffffffffffffffffffffffffffff82169050919050565b6000819050919050565b7f4e487b7100000000000000000000000000000000000000000000000000000000600052601160045260246000fd5b6200025b81620001e3565b81146200026757600080fd5b50565b620002758162000217565b81146200028157600080fd5b50565b60805160601c60a05161097d620002bb6000396000818161042a015261054001526000818161021301526103cc015261097d6000f3fe6080604052600436106100865760003560e01c8063c6bc518211610059578063c6bc518214610116578063c744656514610141578063d6fbf2021461016c578063df16744c14610197578063dfbf53ae146101c257610086565b806308551a531461008b57806347ccca02146100b65780638622a689146100e1578063a6f2ae3a1461010c575b600080fd5b34801561009757600080fd5b506100a06101ed565b6040516100ad91906106c0565b60405180910390f35b3480156100c257600080fd5b506100cb610211565b6040516100d8919061073b565b60405180910390f35b3480156100ed57600080fd5b506100f6610235565b60405161010391906107b6565b60405180910390f35b61011461023b565b005b34801561012257600080fd5b5061012b61053e565b60405161013891906107b6565b60405180910390f35b34801561014d57600080fd5b50610156610562565b60405161016391906107b6565b60405180910390f35b34801561017857600080fd5b50610181610568565b60405161018e91906107b6565b60405180910390f35b3480156101a357600080fd5b506101ac61056e565b6040516101b991906107b6565b60405180910390f35b3480156101ce57600080fd5b506101d7610574565b6040516101e491906106a5565b60405180910390f35b60008054906101000a900473ffffffffffffffffffffffffffffffffffffffff1681565b7f000000000000000000000000000000000000000000000000000000000000000081565b60035481565b600354421061027f576040517f08c379a000000000000000000000000000000000000000000000000000000000815260040161027690610796565b60405180910390fd5b600073ffffffffffffffffffffffffffffffffffffffff16600560009054906101000a900473ffffffffffffffffffffffffffffffffffffffff1673ffffffffffffffffffffffffffffffffffffffff1614610310576040517f08c379a000000000000000000000000000000000000000000000000000000000815260040161030790610776565b60405180910390fd5b600060025442610320919061083c565b905060008160045461033291906107e2565b9050600081600154610344919061083c565b905080341015610389576040517f08c379a000000000000000000000000000000000000000000000000000000000815260040161038090610756565b60405180910390fd5b33600560006101000a81548173ffffffffffffffffffffffffffffffffffffffff021916908373ffffffffffffffffffffffffffffffffffffffff1602179055507f000000000000000000000000000000000000000000000000000000000000000073ffffffffffffffffffffffffffffffffffffffff166323b872dd60008054906101000a900473ffffffffffffffffffffffffffffffffffffffff16337f00000000000000000000000000000000000000000000000000000000000000006040518463ffffffff1660e01b8152600401610467939291906106db565b600060405180830381600087803b15801561048157600080fd5b505af1158015610495573d6000803e3d6000fd5b5050505060008054906101000a900473ffffffffffffffffffffffffffffffffffffffff1673ffffffffffffffffffffffffffffffffffffffff166108fc349081150290604051600060405180830381858888f193505050501580156104ff573d6000803e3d6000fd5b507fe3d4187f6ca4248660cc0ac8b8056515bac4a8132be2eca31d6d0cc170722a7e3334604051610531929190610712565b60405180910390a1505050565b7f000000000000000000000000000000000000000000000000000000000000000081565b60025481565b60015481565b60045481565b600560009054906101000a900473ffffffffffffffffffffffffffffffffffffffff1681565b6105a3816108be565b82525050565b6105b281610882565b82525050565b6105c181610870565b82525050565b6105d0816108d0565b82525050565b60006105e3600b836107d1565b91507f455448203c2070726963650000000000000000000000000000000000000000006000830152602082019050919050565b60006106236010836107d1565b91507f61756374696f6e2066696e6973686564000000000000000000000000000000006000830152602082019050919050565b6000610663600f836107d1565b91507f61756374696f6e206578706972656400000000000000000000000000000000006000830152602082019050919050565b61069f816108b4565b82525050565b60006020820190506106ba60008301846105b8565b92915050565b60006020820190506106d560008301846105a9565b92915050565b60006060820190506106f0600083018661059a565b6106fd60208301856105b8565b61070a6040830184610696565b949350505050565b600060408201905061072760008301856105b8565b6107346020830184610696565b9392505050565b600060208201905061075060008301846105c7565b92915050565b6000602082019050818103600083015261076f816105d6565b9050919050565b6000602082019050818103600083015261078f81610616565b9050919050565b600060208201905081810360008301526107af81610656565b9050919050565b60006020820190506107cb6000830184610696565b92915050565b600082825260208201905092915050565b60006107ed826108b4565b91506107f8836108b4565b9250817fffffffffffffffffffffffffffffffffffffffffffffffffffffffffffffffff048311821515161561083157610830610918565b5b828202905092915050565b6000610847826108b4565b9150610852836108b4565b92508282101561086557610864610918565b5b828203905092915050565b600061087b82610894565b9050919050565b600061088d82610894565b9050919050565b600073ffffffffffffffffffffffffffffffffffffffff82169050919050565b6000819050919050565b60006108c9826108f4565b9050919050565b60006108db826108e2565b9050919050565b60006108ed82610894565b9050919050565b60006108ff82610906565b9050919050565b600061091182610894565b9050919050565b7f4e487b7100000000000000000000000000000000000000000000000000000000600052601160045260246000fdfea2646970667358221220cd58829911fca22e3257c02cfc9f753e4fc95347cd74b5e9d7211577a6b6ab9764736f6c63430008000033",
  "linkReferences": {},
  "deployedLinkReferences": {}
}